:020000040000FA
:020000000528D1
:040002000034003492
:0200080054287A
:06000A0083120313A001A4
:10001000A101A201A301A401A601A5018316031752
:100020000130880089018316031305140711061493
:1000300007138717ED3081000730810015149F01E9
:10004000181519309900981618127C3092008312F6
:10005000031341309F009817181601170B168B10C9
:100060008B160B110C170B178B17073092000C30E7
:100070009700950197121712260803194128A60127
:100080009F14220803193C28A201250803194D28B2
:1000900023099500971217123C282408FF39950070
:1000A0009712171273203C28F000030EF1000B1D6D
:1000B0005D280B11ED308100A60A8B1C63288B1084
:1000C0002508013AA5000C1F69280C131E08A3007F
:1000D000A20A8C1E6E281A08A4008C12710E8300CE
:1000E000F00E700E0900A101260803197428A6015C
:0E00F000A10A2108143A031D7428A10108007A
:02400E00E123AC
:02401000FF3F70
:00000001FF
